S01F00006F6E5F64656D616E645F747261666669635F6C696768742E73726563AB
S11300000C9432000C944D010C944F000C944F004E
S11300100C944F000C944F000C944F000C944F0020
S11300200C944F000C944F000C944F000C944F0010
S11300300C944F000C944F000C944F000C944F0000
S11300400C944F000C944F000C944F000C944F00F0
S11300500C944F009A00B200CA00E200FE001601A0
S11300602B01430111241FBECFE5D8E0DEBFCDBF75
S113007010E0A0E6B0E0E2EEF6E002C005900D92DA
S1130080A437B107D9F720E0A4E7B0E001C01D927E
S1130090A637B207E1F70E9462030C946F030C9435
S11300A000006091710070917200809173000E9451
S11300B08E0160916E0070916F00809170000E94BB
S11300C08E0160916B0070916C0080916D000E94B4
S11300D08E01609168007091690080916A000E94AD
S11300E08E016091650070916600809167000E94A6
S11300F08E016091620070916300809164000E949F
S11301008E0162E084E40E948701789485B783605D
S113011085BF8BB780648BBF0895E0916000F09138
S113012061003197E830F10508F0B3C0E65DFF4F98
S11301300C946903209168003091690040916A0031
S11301406091710070917200809173000E94A1010E
S1130150809160009091610001969093610080937A
S113016060000895209168003091690040916A0010
S113017060916E0070916F00809170000E94A101E7
S1130180809160009091610001969093610080934A
S113019060000895209168003091690040916A00E0
S11301A060916B0070916C0080916D000E94A101C0
S11301B0809160009091610001969093610080931A
S11301C060000895209168003091690040916A00B0
S11301D060916E0070916F00809170000E94A10187
S11301E08091600090916100079709F452C081E00A
S11301F090E09093610080936000089520916200E4
S113020030916300409164006091710070917200BC
S1130210809173000E94A10180916000909161001F
S11302200196909361008093600008952091650089
S1130230309166004091670060916E0070916F008C
S1130240809170000E94A10183E090E0909361008E
S1130250809360000895209165003091660040917C
S1130260670060916E0070916F00809170000E9431
S1130270A1018091600090916100019690936100CA
S113028080936000089585E090E0909361008093EE
S1130290600008950E948D00FDCF1F920F920FB64B
S11302A00F9211248F939F9380916000909161002D
S11302B0029731F08091600090916100039739F4C6
S11302C086E090E0909361008093600019C0809173
S11302D0600090916100019739F484E090E090937C
S11302E06100809360000CC0809160009091610077
S11302F0049731F487E090E090936100809360006C
S11303009F918F910F900FBE0F901F901895982F6B
S1130310862F40E0692F0E94F8010895872F41E05D
S11303200E94F8010895872F41E00E9483020895F6
S1130330872F40E00E9483020895872F0E940E03B6
S11303400895EF92FF920F931F93CF93DF93062F9D
S1130350172FC82FE22EF32ED42F0E9493016E2D57
S11303607F2D8D2F0E9493010E944D0385E00E94F2
S1130370500321C00E9457038823E1F3C13081F464
S11303808091740080FD0CC0602F712F8C2F0E940F
S11303909D01D13029F46E2D7F2D8D2F0E949D015A
S11303A080917400909175000196909375008093EC
S11303B074000E945E0380917400909175004497CC
S11303C0C8F210927500109274000E945503602FB9
S11303D0712F8C2F0E9498016E2D7F2D8D2F0E94DE
S11303E09801DF91CF911F910F91FF90EF900895A5
S11303F0623459F118F4613441F00895633409F416
S113040044C0643409F460C0089541110EC04AB375
S113041021E030E0B90102C0660F771F8A95E2F748
S1130420CB01809584238ABB0895413009F06AC0CA
S11304304AB321E030E0B90102C0660F771F8A9504
S1130440E2F7CB01842B8ABB089541110EC047B358
S113045021E030E0B90102C0660F771F8A95E2F708
S1130460CB018095842387BB0895413009F04AC0AD
S113047047B321E030E0B90102C0660F771F8A95C7
S1130480E2F7CB01842B87BB089541110EC044B31E
S113049021E030E0B90102C0660F771F8A95E2F7C8
S11304A0CB018095842384BB0895413059F544B32E
S11304B021E030E0B90102C0660F771F8A95E2F7A8
S11304C0CB01842B84BB089541110EC041B321E0BC
S11304D030E0B90102C0660F771F8A95E2F7CB01BD
S11304E08095842381BB0895413061F441B321E0B8
S11304F030E0B90102C0660F771F8A95E2F7CB019D
S1130500842B81BB0895623459F118F4613441F0AD
S11305100895633409F444C0643409F460C0089550
S113052041110EC04BB321E030E0B90102C0660FA7
S1130530771F8A95E2F7CB01809584238BBB0895BE
S1130540413009F06AC04BB321E030E0B90102C088
S1130550660F771F8A95E2F7CB01842B8BBB089536
S113056041110EC048B321E030E0B90102C0660F6A
S1130570771F8A95E2F7CB018095842388BB089581
S1130580413009F04AC048B321E030E0B90102C06B
S1130590660F771F8A95E2F7CB01842B88BB0895F9
S11305A041110EC045B321E030E0B90102C0660F2D
S11305B0771F8A95E2F7CB018095842385BB089544
S11305C0413059F545B321E030E0B90102C0660F6E
S11305D0771F8A95E2F7CB01842B85BB08954111DF
S11305E00EC042B321E030E0B90102C0660F771FAC
S11305F08A95E2F7CB018095842382BB089541302C
S113060061F442B321E030E0B90102C0660F771F04
S11306108A95E2F7CB01842B82BB08956234B1F052
S113062018F4613431F008956334E9F0643441F12D
S113063008954BB321E030E0B90102C0660F771F83
S11306408A95E2F7CB0184278BBB089548B321E058
S113065030E0B90102C0660F771F8A95E2F7CB013B
S1130660842788BB089545B321E030E0B90102C076
S1130670660F771F8A95E2F7CB01842785BB08951F
S113068042B321E030E0B90102C0660F771F8A95BA
S1130690E2F7CB01842782BB089513BE12BE0895EE
S11306A093B7987F892B83BF089513BE089508B626
S11306B000FE02C081E0089580E0089588B781605B
S11306C088BF08950E9451000E944A0180E090E092
S11306D00895EE0FFF1F0590F491E02D0994F8940E
S10506E0FFCF46
S11306E201004202024201014200004102024101B0
S10706F201410000BE
S9030000FC
